{
  "_format": "hh-sol-artifact-1",
  "contractName": "ConfidentialBank",
  "sourceName": "contracts/ConfidentialBank.sol",
  "abi": [
    {
      "inputs": [
        {
          "internalType": "bytes32",
          "name": "handle",
          "type": "bytes32"
        },
        {
          "internalType": "address",
          "name": "sender",
          "type": "address"
        }
      ],
      "name": "SenderNotAllowedToUseHandle",
      "type": "error"
    },
    {
      "inputs": [],
      "name": "ZamaProtocolUnsupported",
      "type": "error"
    },
    {
      "anonymous": false,
      "inputs": [
        {
          "indexed": true,
          "internalType": "address",
          "name": "account",
          "type": "address"
        }
      ],
      "name": "DepositMade",
      "type": "event"
    },
    {
      "anonymous": false,
      "inputs": [
        {
          "indexed": true,
          "internalType": "address",
          "name": "from",
          "type": "address"
        },
        {
          "indexed": true,
          "internalType": "address",
          "name": "to",
          "type": "address"
        }
      ],
      "name": "TransferMade",
      "type": "event"
    },
    {
      "anonymous": false,
      "inputs": [
        {
          "indexed": true,
          "internalType": "address",
          "name": "account",
          "type": "address"
        }
      ],
      "name": "WithdrawalMade",
      "type": "event"
    },
    {
      "inputs": [],
      "name": "FEE_DENOMINATOR",
      "outputs": [
        {
          "internalType": "uint64",
          "name": "",
          "type": "uint64"
        }
      ],
      "stateMutability": "view",
      "type": "function"
    },
    {
      "inputs": [],
      "name": "FEE_NUMERATOR",
      "outputs": [
        {
          "internalType": "uint64",
          "name": "",
          "type": "uint64"
        }
      ],
      "stateMutability": "view",
      "type": "function"
    },
    {
      "inputs": [
        {
          "internalType": "address",
          "name": "",
          "type": "address"
        }
      ],
      "name": "accountBalances",
      "outputs": [
        {
          "internalType": "euint64",
          "name": "",
          "type": "bytes32"
        }
      ],
      "stateMutability": "view",
      "type": "function"
    },
    {
      "inputs": [],
      "name": "confidentialProtocolId",
      "outputs": [
        {
          "internalType": "uint256",
          "name": "",
          "type": "uint256"
        }
      ],
      "stateMutability": "view",
      "type": "function"
    },
    {
      "inputs": [
        {
          "internalType": "externalEuint64",
          "name": "encryptedAmount",
          "type": "bytes32"
        },
        {
          "internalType": "bytes",
          "name": "inputProof",
          "type": "bytes"
        }
      ],
      "name": "deposit",
      "outputs": [],
      "stateMutability": "nonpayable",
      "type": "function"
    },
    {
      "inputs": [
        {
          "internalType": "address",
          "name": "account",
          "type": "address"
        }
      ],
      "name": "getEncryptedBalance",
      "outputs": [
        {
          "internalType": "euint64",
          "name": "",
          "type": "bytes32"
        }
      ],
      "stateMutability": "view",
      "type": "function"
    },
    {
      "inputs": [
        {
          "internalType": "address",
          "name": "recipient",
          "type": "address"
        },
        {
          "internalType": "externalEuint64",
          "name": "encryptedAmount",
          "type": "bytes32"
        },
        {
          "internalType": "bytes",
          "name": "inputProof",
          "type": "bytes"
        }
      ],
      "name": "transfer",
      "outputs": [
        {
          "internalType": "bool",
          "name": "",
          "type": "bool"
        }
      ],
      "stateMutability": "nonpayable",
      "type": "function"
    },
    {
      "inputs": [
        {
          "internalType": "address",
          "name": "recipient",
          "type": "address"
        },
        {
          "internalType": "externalEuint64",
          "name": "encryptedAmount",
          "type": "bytes32"
        },
        {
          "internalType": "bytes",
          "name": "inputProof",
          "type": "bytes"
        }
      ],
      "name": "transferWithFee",
      "outputs": [
        {
          "internalType": "bool",
          "name": "",
          "type": "bool"
        }
      ],
      "stateMutability": "nonpayable",
      "type": "function"
    },
    {
      "inputs": [
        {
          "internalType": "externalEuint64",
          "name": "encryptedWithdrawalAmount",
          "type": "bytes32"
        },
        {
          "internalType": "bytes",
          "name": "inputProof",
          "type": "bytes"
        }
      ],
      "name": "withdraw",
      "outputs": [
        {
          "internalType": "bool",
          "name": "",
          "type": "bool"
        }
      ],
      "stateMutability": "nonpayable",
      "type": "function"
    }
  ],
  "bytecode": "0x608060405234801561000f575f5ffd5b506100c461001b6100c9565b80517f9e7b61f58c47dc699ac88507c4f5bb9f121c03808c5676a8078fe583e464970080546001600160a01b03199081166001600160a01b039384161790915560208301517f9e7b61f58c47dc699ac88507c4f5bb9f121c03808c5676a8078fe583e46497018054831691841691909117905560408301517f9e7b61f58c47dc699ac88507c4f5bb9f121c03808c5676a8078fe583e46497028054909216921691909117905550565b610278565b604080516060810182525f808252602082018190529181019190915246600103610162575060408051606080820183525f8083526020808401829052928401528251908101835273ca2e8f1f656cd25c01f05d0b243ab1ecd4a8ffb6815273d82385dada1ae3e969447f20a3164f6213100e75918101919091527377627828a55156b04ac0dc0eb30467f1a552bb039181019190915290565b4662aa36a7036101e1575060408051606080820183525f8083526020808401829052928401528251908101835273f0ffdc93b7e186bc2f8cb3daa75d86d1930a433d81527392c920834ec8941d2c77d188936e1f7a6f49c1279181019190915273be0e383937d564d7ff0bc3b46c51f0bf8d5c311a9181019190915290565b46617a690361025f575060408051606080820183525f808352602080840182905292840152825190810183527350157cffd6bbfa2dece204a89ec419c23ef5755d815273e3a9105a3a932253a70f126eb1e3b589c643dd249181019190915273be0e383937d564d7ff0bc3b46c51f0bf8d5c311a9181019190915290565b6040516373cac13b60e01b815260040160405180910390fd5b6110dd806102855f395ff3fe608060405234801561000f575f5ffd5b506004361061009f575f3560e01c80637b7e0a5a11610072578063d73792a911610058578063d73792a91461015c578063e29973fc14610165578063e620af2c1461017a575f5ffd5b80637b7e0a5a146101415780638927b03014610154575f5ffd5b8063402dc4e4146100a357806341cd47bf146100de5780634a2e35ba146100ff5780636ff96d1714610122575b5f5ffd5b6100cb6100b1366004610ef9565b6001600160a01b03165f9081526020819052604090205490565b6040519081526020015b60405180910390f35b6100e6600581565b60405167ffffffffffffffff90911681526020016100d5565b61011261010d366004610f57565b61018d565b60405190151581526020016100d5565b6100cb610130366004610ef9565b5f6020819052908152604090205481565b61011261014f366004610f9f565b610270565b6100cb61047e565b6100e66103e881565b610178610173366004610f57565b61048c565b005b610112610188366004610f9f565b610542565b5f5f6101ce8585858080601f0160208091040260200160405190810160405280939291908181526020018383808284375f9201919091525061071b92505050565b335f908152602081905260408120549192506101ea838361078a565b90505f61020082856101fb5f6107b8565b6107ce565b90505f61020d8483610815565b335f908152602081905260409020819055905061022981610843565b506102348133610863565b5060405133907fd8dee34af5e5ded011300c086d6f9738abc8a1362f5a4c27eb0b5f5d9efd6add905f90a26001955050505050505b9392505050565b5f6001600160a01b0385166102cc5760405162461bcd60e51b815260206004820152601160248201527f496e76616c696420726563697069656e7400000000000000000000000000000060448201526064015b60405180910390fd5b336001600160a01b038616036103245760405162461bcd60e51b815260206004820152601b60248201527f43616e6e6f74207472616e7366657220746f20796f757273656c66000000000060448201526064016102c3565b5f6103648585858080601f0160208091040260200160405190810160405280939291908181526020018383808284375f9201919091525061071b92505050565b335f90815260208190526040812054919250610380838361078a565b90505f61039182856101fb5f6107b8565b905061039d8382610815565b335f9081526020819052604090208190556103b790610843565b50335f818152602081905260409020546103d091610863565b506001600160a01b0389165f908152602081905260409020546103f39082610886565b6001600160a01b038a165f90815260208190526040902081905561041690610843565b506001600160a01b0389165f90815260208190526040902054610439908a610863565b506040516001600160a01b038a169033907ffdfe2f7f66eec36f36fb820766bc3826abc9461d5b3d259ccf3621b2d48736df905f90a350600198975050505050505050565b5f6104876108b4565b905090565b5f6104cc8484848080601f0160208091040260200160405190810160405280939291908181526020018383808284375f9201919091525061071b92505050565b335f90815260208190526040812054919250906104e99083610886565b335f908152602081905260409020819055905061050581610843565b506105108133610863565b5060405133907f19dfd6719cc43db2ea29abcae858d57f5d96b6c6d3d62ce9a082ea1bf3bd7218905f90a25050505050565b5f6001600160a01b0385166105995760405162461bcd60e51b815260206004820152601160248201527f496e76616c696420726563697069656e7400000000000000000000000000000060448201526064016102c3565b5f6105d98585858080601f0160208091040260200160405190810160405280939291908181526020018383808284375f9201919091525061071b92505050565b90505f6105f0826105eb6103ed6107b8565b6108e8565b9050610600816105eb60016107b8565b335f9081526020819052604081205491925061061c848361078a565b90505f61062d82866101fb5f6107b8565b90506106398382610815565b335f90815260208190526040902081905561065390610843565b50335f8181526020819052604090205461066c91610863565b506001600160a01b038a165f9081526020819052604090205461068f9082610886565b6001600160a01b038b165f9081526020819052604090208190556106b290610843565b506001600160a01b038a165f908152602081905260409020546106d5908b610863565b506040516001600160a01b038b169033907ffdfe2f7f66eec36f36fb820766bc3826abc9461d5b3d259ccf3621b2d48736df905f90a35060019998505050505050505050565b5f81515f146107375761073083836005610916565b9050610784565b825f819003610751576107495f6107b8565b915050610784565b61075b8133610a23565b61078157604051630276b5d960e01b8152600481018290523360248201526044016102c3565b90505b92915050565b5f8261079c576107995f6107b8565b92505b816107ad576107aa5f6107b8565b91505b61078183835f610aa7565b5f6107848267ffffffffffffffff166005610b77565b5f836107e0576107dd5f610c19565b93505b826107f1576107ee5f6107b8565b92505b81610802576107ff5f6107b8565b91505b61080d848484610c34565b949350505050565b5f82610827576108245f6107b8565b92505b81610838576108355f6107b8565b91505b61078183835f610cca565b5f81610855576108525f6107b8565b91505b61085f8230610d54565b5090565b5f82610875576108725f6107b8565b92505b61087f8383610d54565b5090919050565b5f82610898576108955f6107b8565b92505b816108a9576108a65f6107b8565b91505b61078183835f610dca565b5f466001036108c35750600190565b4662aa36a7036108d4575061271190565b46617a69036108e357505f1990565b505f90565b5f826108fa576108f75f6107b8565b92505b8161090b576109085f6107b8565b91505b61078183835f610e54565b7f9e7b61f58c47dc699ac88507c4f5bb9f121c03808c5676a8078fe583e46497015460405163045fc19560e11b81525f915f5160206110b15f395f51905f52916001600160a01b03909116906308bf832a9061097c908890339089908990600401611015565b6020604051808303815f875af1158015610998573d5f5f3e3d5ffd5b505050506040513d601f19601f820116820180604052508101906109bc9190611066565b8154604051630f8e573b60e21b8152600481018390523360248201529193506001600160a01b031690633e395cec906044015f604051808303815f87803b158015610a05575f5ffd5b505af1158015610a17573d5f5f3e3d5ffd5b50505050509392505050565b5f805f5160206110b15f395f51905f5280546040516382027b6d60e01b8152600481018790526001600160a01b0386811660248301529293509116906382027b6d90604401602060405180830381865afa158015610a83573d5f5f3e3d5ffd5b505050506040513d601f19601f8201168201806040525081019061080d919061107d565b5f5f8215610aba5750600160f81b610abd565b505f5b7f9e7b61f58c47dc699ac88507c4f5bb9f121c03808c5676a8078fe583e464970154604051631d44e90160e21b815260048101879052602481018690526001600160f81b0319831660448201525f5160206110b15f395f51905f52916001600160a01b031690637513a404906064015b6020604051808303815f875af1158015610b49573d5f5f3e3d5ffd5b505050506040513d601f19601f82011682018060405250810190610b6d9190611066565b9695505050505050565b7f9e7b61f58c47dc699ac88507c4f5bb9f121c03808c5676a8078fe583e464970154604051639cd07acb60e01b81525f915f5160206110b15f395f51905f52916001600160a01b0390911690639cd07acb90610bd9908790879060040161109c565b6020604051808303815f875af1158015610bf5573d5f5f3e3d5ffd5b505050506040513d601f19601f8201168201806040525081019061080d9190611066565b5f61078482610c28575f610c2b565b60015b60ff165f610b77565b5f805f5160206110b15f395f51905f526001810154604051637702dcff60e01b81526004810188905260248101879052604481018690529192506001600160a01b031690637702dcff906064016020604051808303815f875af1158015610c9d573d5f5f3e3d5ffd5b505050506040513d601f19601f82011682018060405250810190610cc19190611066565b95945050505050565b5f5f8215610cdd5750600160f81b610ce0565b505f5b7f9e7b61f58c47dc699ac88507c4f5bb9f121c03808c5676a8078fe583e4649701546040516303056db360e31b815260048101879052602481018690526001600160f81b0319831660448201525f5160206110b15f395f51905f52916001600160a01b03169063182b6d9890606401610b2d565b5f5f5160206110b15f395f51905f528054604051635ca4b5b160e11b8152600481018690526001600160a01b03858116602483015292935091169063b9496b62906044015f604051808303815f87803b158015610daf575f5ffd5b505af1158015610dc1573d5f5f3e3d5ffd5b50505050505050565b5f5f8215610ddd5750600160f81b610de0565b505f5b7f9e7b61f58c47dc699ac88507c4f5bb9f121c03808c5676a8078fe583e46497015460405163022f65e760e31b815260048101879052602481018690526001600160f81b0319831660448201525f5160206110b15f395f51905f52916001600160a01b03169063117b2f3890606401610b2d565b5f5f8215610e675750600160f81b610e6a565b505f5b7f9e7b61f58c47dc699ac88507c4f5bb9f121c03808c5676a8078fe583e464970154604051630afe14ad60e31b815260048101879052602481018690526001600160f81b0319831660448201525f5160206110b15f395f51905f52916001600160a01b0316906357f0a56890606401610b2d565b80356001600160a01b0381168114610ef4575f5ffd5b919050565b5f60208284031215610f09575f5ffd5b61078182610ede565b5f5f83601f840112610f22575f5ffd5b50813567ffffffffffffffff811115610f39575f5ffd5b602083019150836020828501011115610f50575f5ffd5b9250929050565b5f5f5f60408486031215610f69575f5ffd5b83359250602084013567ffffffffffffffff811115610f86575f5ffd5b610f9286828701610f12565b9497909650939450505050565b5f5f5f5f60608587031215610fb2575f5ffd5b610fbb85610ede565b935060208501359250604085013567ffffffffffffffff811115610fdd575f5ffd5b610fe987828801610f12565b95989497509550505050565b6054811061101157634e487b7160e01b5f52602160045260245ffd5b9052565b8481526001600160a01b0384166020820152608060408201525f8351806080840152806020860160a085015e5f60a0828501015260a0601f19601f830116840101915050610cc16060830184610ff5565b5f60208284031215611076575f5ffd5b5051919050565b5f6020828403121561108d575f5ffd5b81518015158114610269575f5ffd5b828152604081016102696020830184610ff556fe9e7b61f58c47dc699ac88507c4f5bb9f121c03808c5676a8078fe583e4649700a164736f6c634300081b000a",
  "linkReferences": {},
  "deployedLinkReferences": {}
}